{
  "_format": "hh-sol-artifact-1",
  "contractName": "nftContract",
  "sourceName": "contracts/nftContract.sol",
  "abi": [
    {
      "inputs": [],
      "stateMutability": "nonpayable",
      "type": "constructor"
    },
    {
      "anonymous": false,
      "inputs": [
        {
          "indexed": true,
          "internalType": "address",
          "name": "owner",
          "type": "address"
        },
        {
          "indexed": true,
          "internalType": "address",
          "name": "approved",
          "type": "address"
        },
        {
          "indexed": true,
          "internalType": "uint256",
          "name": "tokenId",
          "type": "uint256"
        }
      ],
      "name": "Approval",
      "type": "event"
    },
    {
      "anonymous": false,
      "inputs": [
        {
          "indexed": true,
          "internalType": "address",
          "name": "owner",
          "type": "address"
        },
        {
          "indexed": true,
          "internalType": "address",
          "name": "operator",
          "type": "address"
        },
        {
          "indexed": false,
          "internalType": "bool",
          "name": "approved",
          "type": "bool"
        }
      ],
      "name": "ApprovalForAll",
      "type": "event"
    },
    {
      "anonymous": false,
      "inputs": [
        {
          "indexed": true,
          "internalType": "address",
          "name": "from",
          "type": "address"
        },
        {
          "indexed": true,
          "internalType": "address",
          "name": "to",
          "type": "address"
        },
        {
          "indexed": true,
          "internalType": "uint256",
          "name": "tokenId",
          "type": "uint256"
        }
      ],
      "name": "Transfer",
      "type": "event"
    },
    {
      "inputs": [
        {
          "internalType": "address",
          "name": "to",
          "type": "address"
        },
        {
          "internalType": "uint256",
          "name": "tokenId",
          "type": "uint256"
        }
      ],
      "name": "approve",
      "outputs": [],
      "stateMutability": "nonpayable",
      "type": "function"
    },
    {
      "inputs": [
        {
          "internalType": "address",
          "name": "owner",
          "type": "address"
        }
      ],
      "name": "balanceOf",
      "outputs": [
        {
          "internalType": "uint256",
          "name": "",
          "type": "uint256"
        }
      ],
      "stateMutability": "view",
      "type": "function"
    },
    {
      "inputs": [
        {
          "internalType": "uint256",
          "name": "tokenId",
          "type": "uint256"
        }
      ],
      "name": "getApproved",
      "outputs": [
        {
          "internalType": "address",
          "name": "",
          "type": "address"
        }
      ],
      "stateMutability": "view",
      "type": "function"
    },
    {
      "inputs": [
        {
          "internalType": "address",
          "name": "owner",
          "type": "address"
        },
        {
          "internalType": "address",
          "name": "operator",
          "type": "address"
        }
      ],
      "name": "isApprovedForAll",
      "outputs": [
        {
          "internalType": "bool",
          "name": "",
          "type": "bool"
        }
      ],
      "stateMutability": "view",
      "type": "function"
    },
    {
      "inputs": [
        {
          "internalType": "string",
          "name": "NFTtokenUri",
          "type": "string"
        }
      ],
      "name": "mintNFT",
      "outputs": [],
      "stateMutability": "nonpayable",
      "type": "function"
    },
    {
      "inputs": [],
      "name": "name",
      "outputs": [
        {
          "internalType": "string",
          "name": "",
          "type": "string"
        }
      ],
      "stateMutability": "view",
      "type": "function"
    },
    {
      "inputs": [
        {
          "internalType": "uint256",
          "name": "tokenId",
          "type": "uint256"
        }
      ],
      "name": "ownerOf",
      "outputs": [
        {
          "internalType": "address",
          "name": "",
          "type": "address"
        }
      ],
      "stateMutability": "view",
      "type": "function"
    },
    {
      "inputs": [
        {
          "internalType": "address",
          "name": "from",
          "type": "address"
        },
        {
          "internalType": "address",
          "name": "to",
          "type": "address"
        },
        {
          "internalType": "uint256",
          "name": "tokenId",
          "type": "uint256"
        }
      ],
      "name": "safeTransferFrom",
      "outputs": [],
      "stateMutability": "nonpayable",
      "type": "function"
    },
    {
      "inputs": [
        {
          "internalType": "address",
          "name": "from",
          "type": "address"
        },
        {
          "internalType": "address",
          "name": "to",
          "type": "address"
        },
        {
          "internalType": "uint256",
          "name": "tokenId",
          "type": "uint256"
        },
        {
          "internalType": "bytes",
          "name": "_data",
          "type": "bytes"
        }
      ],
      "name": "safeTransferFrom",
      "outputs": [],
      "stateMutability": "nonpayable",
      "type": "function"
    },
    {
      "inputs": [
        {
          "internalType": "address",
          "name": "operator",
          "type": "address"
        },
        {
          "internalType": "bool",
          "name": "approved",
          "type": "bool"
        }
      ],
      "name": "setApprovalForAll",
      "outputs": [],
      "stateMutability": "nonpayable",
      "type": "function"
    },
    {
      "inputs": [
        {
          "internalType": "bytes4",
          "name": "interfaceId",
          "type": "bytes4"
        }
      ],
      "name": "supportsInterface",
      "outputs": [
        {
          "internalType": "bool",
          "name": "",
          "type": "bool"
        }
      ],
      "stateMutability": "view",
      "type": "function"
    },
    {
      "inputs": [],
      "name": "symbol",
      "outputs": [
        {
          "internalType": "string",
          "name": "",
          "type": "string"
        }
      ],
      "stateMutability": "view",
      "type": "function"
    },
    {
      "inputs": [
        {
          "internalType": "uint256",
          "name": "tokenId",
          "type": "uint256"
        }
      ],
      "name": "tokenURI",
      "outputs": [
        {
          "internalType": "string",
          "name": "",
          "type": "string"
        }
      ],
      "stateMutability": "view",
      "type": "function"
    },
    {
      "inputs": [
        {
          "internalType": "address",
          "name": "from",
          "type": "address"
        },
        {
          "internalType": "address",
          "name": "to",
          "type": "address"
        },
        {
          "internalType": "uint256",
          "name": "tokenId",
          "type": "uint256"
        }
      ],
      "name": "transferFrom",
      "outputs": [],
      "stateMutability": "nonpayable",
      "type": "function"
    }
  ],
  "bytecode": "0x60806040523480156200001157600080fd5b506040518060400160405280600681526020017f33626577746500000000000000000000000000000000000000000000000000008152506040518060400160405280600381526020017f3342540000000000000000000000000000000000000000000000000000000000815250816000908051906020019062000096929190620000b8565b508060019080519060200190620000af929190620000b8565b505050620001cd565b828054620000c69062000168565b90600052602060002090601f016020900481019282620000ea576000855562000136565b82601f106200010557805160ff191683800117855562000136565b8280016001018555821562000136579182015b828111156200013557825182559160200191906001019062000118565b5b50905062000145919062000149565b5090565b5b80821115620001645760008160009055506001016200014a565b5090565b600060028204905060018216806200018157607f821691505b602082108114156200019857620001976200019e565b5b50919050565b7f4e487b7100000000000000000000000000000000000000000000000000000000600052602260045260246000fd5b612bb680620001dd6000396000f3fe608060405234801561001057600080fd5b50600436106100ea5760003560e01c806370a082311161008c578063b88d4fde11610066578063b88d4fde1461025b578063c87b56dd14610277578063e985e9c5146102a7578063fb37e883146102d7576100ea565b806370a08231146101f157806395d89b4114610221578063a22cb4651461023f576100ea565b8063095ea7b3116100c8578063095ea7b31461016d57806323b872dd1461018957806342842e0e146101a55780636352211e146101c1576100ea565b806301ffc9a7146100ef57806306fdde031461011f578063081812fc1461013d575b600080fd5b61010960048036038101906101049190611c22565b6102f3565b6040516101169190612069565b60405180910390f35b6101276103d5565b6040516101349190612084565b60405180910390f35b61015760048036038101906101529190611cb5565b610467565b6040516101649190612002565b60405180910390f35b61018760048036038101906101829190611be6565b6104ec565b005b6101a3600480360381019061019e9190611ae0565b610604565b005b6101bf60048036038101906101ba9190611ae0565b610664565b005b6101db60048036038101906101d69190611cb5565b610684565b6040516101e89190612002565b60405180910390f35b61020b60048036038101906102069190611a7b565b610736565b60405161021891906122a6565b60405180910390f35b6102296107ee565b6040516102369190612084565b60405180910390f35b61025960048036038101906102549190611baa565b610880565b005b61027560048036038101906102709190611b2f565b610a01565b005b610291600480360381019061028c9190611cb5565b610a63565b60405161029e9190612084565b60405180910390f35b6102c160048036038101906102bc9190611aa4565b610bb5565b6040516102ce9190612069565b60405180910390f35b6102f160048036038101906102ec9190611c74565b610c49565b005b60007f80ac58cd000000000000000000000000000000000000000000000000000000007bffffffffffffffffffffffffffffffffffffffffffffffffffffffff1916827bffffffffffffffffffffffffffffffffffffffffffffffffffffffff191614806103be57507f5b5e139f000000000000000000000000000000000000000000000000000000007bffffffffffffffffffffffffffffffffffffffffffffffffffffffff1916827bffffffffffffffffffffffffffffffffffffffffffffffffffffffff1916145b806103ce57506103cd82610c79565b5b9050919050565b6060600080546103e4906124fc565b80601f0160208091040260200160405190810160405280929190818152602001828054610410906124fc565b801561045d5780601f106104325761010080835404028352916020019161045d565b820191906000526020600020905b81548152906001019060200180831161044057829003601f168201915b5050505050905090565b600061047282610ce3565b6104b1576040517f08c379a00000000000000000000000000000000000000000000000000000000081526004016104a890612206565b60405180910390fd5b6004600083815260200190815260200160002060009054906101000a900473ffffffffffffffffffffffffffffffffffffffff169050919050565b60006104f782610684565b90508073ffffffffffffffffffffffffffffffffffffffff168373ffffffffffffffffffffffffffffffffffffffff161415610568576040517f08c379a000000000000000000000000000000000000000000000000000000000815260040161055f90612266565b60405180910390fd5b8073ffffffffffffffffffffffffffffffffffffffff16610587610d4f565b73ffffffffffffffffffffffffffffffffffffffff1614806105b657506105b5816105b0610d4f565b610bb5565b5b6105f5576040517f08c379a00000000000000000000000000000000000000000000000000000000081526004016105ec90612146565b60405180910390fd5b6105ff8383610d57565b505050565b61061561060f610d4f565b82610e10565b610654576040517f08c379a000000000000000000000000000000000000000000000000000000000815260040161064b90612286565b60405180910390fd5b61065f838383610eee565b505050565b61067f83838360405180602001604052806000815250610a01565b505050565b6000806002600084815260200190815260200160002060009054906101000a900473ffffffffffffffffffffffffffffffffffffffff169050600073ffffffffffffffffffffffffffffffffffffffff168173ffffffffffffffffffffffffffffffffffffffff16141561072d576040517f08c379a000000000000000000000000000000000000000000000000000000000815260040161072490612186565b60405180910390fd5b80915050919050565b60008073ffffffffffffffffffffffffffffffffffffffff168273ffffffffffffffffffffffffffffffffffffffff1614156107a7576040517f08c379a000000000000000000000000000000000000000000000000000000000815260040161079e90612166565b60405180910390fd5b600360008373ffffffffffffffffffffffffffffffffffffffff1673ffffffffffffffffffffffffffffffffffffffff168152602001908152602001600020549050919050565b6060600180546107fd906124fc565b80601f0160208091040260200160405190810160405280929190818152602001828054610829906124fc565b80156108765780601f1061084b57610100808354040283529160200191610876565b820191906000526020600020905b81548152906001019060200180831161085957829003601f168201915b5050505050905090565b610888610d4f565b73ffffffffffffffffffffffffffffffffffffffff168273ffffffffffffffffffffffffffffffffffffffff1614156108f6576040517f08c379a00000000000000000000000000000000000000000000000000000000081526004016108ed90612106565b60405180910390fd5b8060056000610903610d4f565b73ffffffffffffffffffffffffffffffffffffffff1673ffffffffffffffffffffffffffffffffffffffff16815260200190815260200160002060008473ffffffffffffffffffffffffffffffffffffffff1673ffffffffffffffffffffffffffffffffffffffff16815260200190815260200160002060006101000a81548160ff0219169083151502179055508173ffffffffffffffffffffffffffffffffffffffff166109b0610d4f565b73ffffffffffffffffffffffffffffffffffffffff167f17307eab39ab6107e8899845ad3d59bd9653f200f220920489ca2b5937696c31836040516109f59190612069565b60405180910390a35050565b610a12610a0c610d4f565b83610e10565b610a51576040517f08c379a0000000000000000000000000000000000000000000000000000000008152600401610a4890612286565b60405180910390fd5b610a5d8484848461114a565b50505050565b6060610a6e82610ce3565b610aad576040517f08c379a0000000000000000000000000000000000000000000000000000000008152600401610aa4906121e6565b60405180910390fd5b6000600660008481526020019081526020016000208054610acd906124fc565b80601f0160208091040260200160405190810160405280929190818152602001828054610af9906124fc565b8015610b465780601f10610b1b57610100808354040283529160200191610b46565b820191906000526020600020905b815481529060010190602001808311610b2957829003601f168201915b505050505090506000610b576111a6565b9050600081511415610b6d578192505050610bb0565b600082511115610ba2578082604051602001610b8a929190611fde565b60405160208183030381529060405292505050610bb0565b610bab846111bd565b925050505b919050565b6000600560008473ffffffffffffffffffffffffffffffffffffffff1673ffffffffffffffffffffffffffffffffffffffff16815260200190815260200160002060008373ffffffffffffffffffffffffffffffffffffffff1673ffffffffffffffffffffffffffffffffffffffff16815260200190815260200160002060009054906101000a900460ff16905092915050565b6000610c556007611264565b9050610c613382611272565b610c6b8183611290565b610c756007611304565b5050565b60007f01ffc9a7000000000000000000000000000000000000000000000000000000007bffffffffffffffffffffffffffffffffffffffffffffffffffffffff1916827bffffffffffffffffffffffffffffffffffffffffffffffffffffffff1916149050919050565b60008073ffffffffffffffffffffffffffffffffffffffff166002600084815260200190815260200160002060009054906101000a900473ffffffffffffffffffffffffffffffffffffffff1673ffffffffffffffffffffffffffffffffffffffff1614159050919050565b600033905090565b816004600083815260200190815260200160002060006101000a81548173ffffffffffffffffffffffffffffffffffffffff021916908373ffffffffffffffffffffffffffffffffffffffff160217905550808273ffffffffffffffffffffffffffffffffffffffff16610dca83610684565b73ffffffffffffffffffffffffffffffffffffffff167f8c5be1e5ebec7d5bd14f71427d1e84f3dd0314c0f7b2291e5b200ac8c7c3b92560405160405180910390a45050565b6000610e1b82610ce3565b610e5a576040517f08c379a0000000000000000000000000000000000000000000000000000000008152600401610e5190612126565b60405180910390fd5b6000610e6583610684565b90508073ffffffffffffffffffffffffffffffffffffffff168473ffffffffffffffffffffffffffffffffffffffff161480610ed457508373ffffffffffffffffffffffffffffffffffffffff16610ebc84610467565b73ffffffffffffffffffffffffffffffffffffffff16145b80610ee55750610ee48185610bb5565b5b91505092915050565b8273ffffffffffffffffffffffffffffffffffffffff16610f0e82610684565b73ffffffffffffffffffffffffffffffffffffffff1614610f64576040517f08c379a0000000000000000000000000000000000000000000000000000000008152600401610f5b90612226565b60405180910390fd5b600073ffffffffffffffffffffffffffffffffffffffff168273ffffffffffffffffffffffffffffffffffffffff161415610fd4576040517f08c379a0000000000000000000000000000000000000000000000000000000008152600401610fcb906120e6565b60405180910390fd5b610fdf83838361131a565b610fea600082610d57565b6001600360008573ffffffffffffffffffffffffffffffffffffffff1673ffffffffffffffffffffffffffffffffffffffff168152602001908152602001600020600082825461103a9190612412565b925050819055506001600360008473ffffffffffffffffffffffffffffffffffffffff1673ffffffffffffffffffffffffffffffffffffffff1681526020019081526020016000206000828254611091919061238b565b92505081905550816002600083815260200190815260200160002060006101000a81548173ffffffffffffffffffffffffffffffffffffffff021916908373ffffffffffffffffffffffffffffffffffffffff160217905550808273ffffffffffffffffffffffffffffffffffffffff168473ffffffffffffffffffffffffffffffffffffffff167fddf252ad1be2c89b69c2b068fc378daa952ba7f163c4a11628f55a4df523b3ef60405160405180910390a4505050565b611155848484610eee565b6111618484848461131f565b6111a0576040517f08c379a0000000000000000000000000000000000000000000000000000000008152600401611197906120a6565b60405180910390fd5b50505050565b606060405180602001604052806000815250905090565b60606111c882610ce3565b611207576040517f08c379a00000000000000000000000000000000000000000000000000000000081526004016111fe90612246565b60405180910390fd5b60006112116111a6565b90506000815111611231576040518060200160405280600081525061125c565b8061123b846114b6565b60405160200161124c929190611fde565b6040516020818303038152906040525b915050919050565b600081600001549050919050565b61128c828260405180602001604052806000815250611663565b5050565b61129982610ce3565b6112d8576040517f08c379a00000000000000000000000000000000000000000000000000000000081526004016112cf906121a6565b60405180910390fd5b806006600084815260200190815260200160002090805190602001906112ff92919061189f565b505050565b6001816000016000828254019250508190555050565b505050565b60006113408473ffffffffffffffffffffffffffffffffffffffff166116be565b156114a9578373ffffffffffffffffffffffffffffffffffffffff1663150b7a02611369610d4f565b8786866040518563ffffffff1660e01b815260040161138b949392919061201d565b602060405180830381600087803b1580156113a557600080fd5b505af19250505080156113d657506040513d601f19601f820116820180604052508101906113d39190611c4b565b60015b611459573d8060008114611406576040519150601f19603f3d011682016040523d82523d6000602084013e61140b565b606091505b50600081511415611451576040517f08c379a0000000000000000000000000000000000000000000000000000000008152600401611448906120a6565b60405180910390fd5b805181602001fd5b63150b7a0260e01b7bffffffffffffffffffffffffffffffffffffffffffffffffffffffff1916817bffffffffffffffffffffffffffffffffffffffffffffffffffffffff1916149150506114ae565b600190505b949350505050565b606060008214156114fe576040518060400160405280600181526020017f3000000000000000000000000000000000000000000000000000000000000000815250905061165e565b600082905060005b600082146115305780806115199061255f565b915050600a8261152991906123e1565b9150611506565b60008167ffffffffffffffff811115611572577f4e487b7100000000000000000000000000000000000000000000000000000000600052604160045260246000fd5b6040519080825280601f01601f1916602001820160405280156115a45781602001600182028036833780820191505090505b5090505b60008514611657576001826115bd9190612412565b9150600a856115cc91906125a8565b60306115d8919061238b565b60f81b818381518110611614577f4e487b7100000000000000000000000000000000000000000000000000000000600052603260045260246000fd5b60200101907effffffffffffffffffffffffffffffffffffffffffffffffffffffffffffff1916908160001a905350600a8561165091906123e1565b94506115a8565b8093505050505b919050565b61166d83836116d1565b61167a600084848461131f565b6116b9576040517f08c379a00000000000000000000000000000000000000000000000000000000081526004016116b0906120a6565b60405180910390fd5b505050565b600080823b905060008111915050919050565b600073ffffffffffffffffffffffffffffffffffffffff168273ffffffffffffffffffffffffffffffffffffffff161415611741576040517f08c379a0000000000000000000000000000000000000000000000000000000008152600401611738906121c6565b60405180910390fd5b61174a81610ce3565b1561178a576040517f08c379a0000000000000000000000000000000000000000000000000000000008152600401611781906120c6565b60405180910390fd5b6117966000838361131a565b6001600360008473ffffffffffffffffffffffffffffffffffffffff1673ffffffffffffffffffffffffffffffffffffffff16815260200190815260200160002060008282546117e6919061238b565b92505081905550816002600083815260200190815260200160002060006101000a81548173ffffffffffffffffffffffffffffffffffffffff021916908373ffffffffffffffffffffffffffffffffffffffff160217905550808273ffffffffffffffffffffffffffffffffffffffff16600073ffffffffffffffffffffffffffffffffffffffff167fddf252ad1be2c89b69c2b068fc378daa952ba7f163c4a11628f55a4df523b3ef60405160405180910390a45050565b8280546118ab906124fc565b90600052602060002090601f0160209004810192826118cd5760008555611914565b82601f106118e657805160ff1916838001178555611914565b82800160010185558215611914579182015b828111156119135782518255916020019190600101906118f8565b5b5090506119219190611925565b5090565b5b8082111561193e576000816000905550600101611926565b5090565b6000611955611950846122e6565b6122c1565b90508281526020810184848401111561196d57600080fd5b6119788482856124ba565b509392505050565b600061199361198e84612317565b6122c1565b9050828152602081018484840111156119ab57600080fd5b6119b68482856124ba565b509392505050565b6000813590506119cd81612b24565b92915050565b6000813590506119e281612b3b565b92915050565b6000813590506119f781612b52565b92915050565b600081519050611a0c81612b52565b92915050565b600082601f830112611a2357600080fd5b8135611a33848260208601611942565b91505092915050565b600082601f830112611a4d57600080fd5b8135611a5d848260208601611980565b91505092915050565b600081359050611a7581612b69565b92915050565b600060208284031215611a8d57600080fd5b6000611a9b848285016119be565b91505092915050565b60008060408385031215611ab757600080fd5b6000611ac5858286016119be565b9250506020611ad6858286016119be565b9150509250929050565b600080600060608486031215611af557600080fd5b6000611b03868287016119be565b9350506020611b14868287016119be565b9250506040611b2586828701611a66565b9150509250925092565b60008060008060808587031215611b4557600080fd5b6000611b53878288016119be565b9450506020611b64878288016119be565b9350506040611b7587828801611a66565b925050606085013567ffffffffffffffff811115611b9257600080fd5b611b9e87828801611a12565b91505092959194509250565b60008060408385031215611bbd57600080fd5b6000611bcb858286016119be565b9250506020611bdc858286016119d3565b9150509250929050565b60008060408385031215611bf957600080fd5b6000611c07858286016119be565b9250506020611c1885828601611a66565b9150509250929050565b600060208284031215611c3457600080fd5b6000611c42848285016119e8565b91505092915050565b600060208284031215611c5d57600080fd5b6000611c6b848285016119fd565b91505092915050565b600060208284031215611c8657600080fd5b600082013567ffffffffffffffff811115611ca057600080fd5b611cac84828501611a3c565b91505092915050565b600060208284031215611cc757600080fd5b6000611cd584828501611a66565b91505092915050565b611ce781612446565b82525050565b611cf681612458565b82525050565b6000611d0782612348565b611d11818561235e565b9350611d218185602086016124c9565b611d2a81612695565b840191505092915050565b6000611d4082612353565b611d4a818561236f565b9350611d5a8185602086016124c9565b611d6381612695565b840191505092915050565b6000611d7982612353565b611d838185612380565b9350611d938185602086016124c9565b80840191505092915050565b6000611dac60328361236f565b9150611db7826126a6565b604082019050919050565b6000611dcf601c8361236f565b9150611dda826126f5565b602082019050919050565b6000611df260248361236f565b9150611dfd8261271e565b604082019050919050565b6000611e1560198361236f565b9150611e208261276d565b602082019050919050565b6000611e38602c8361236f565b9150611e4382612796565b604082019050919050565b6000611e5b60388361236f565b9150611e66826127e5565b604082019050919050565b6000611e7e602a8361236f565b9150611e8982612834565b604082019050919050565b6000611ea160298361236f565b9150611eac82612883565b604082019050919050565b6000611ec4602e8361236f565b9150611ecf826128d2565b604082019050919050565b6000611ee760208361236f565b9150611ef282612921565b602082019050919050565b6000611f0a60318361236f565b9150611f158261294a565b604082019050919050565b6000611f2d602c8361236f565b9150611f3882612999565b604082019050919050565b6000611f5060298361236f565b9150611f5b826129e8565b604082019050919050565b6000611f73602f8361236f565b9150611f7e82612a37565b604082019050919050565b6000611f9660218361236f565b9150611fa182612a86565b604082019050919050565b6000611fb960318361236f565b9150611fc482612ad5565b604082019050919050565b611fd8816124b0565b82525050565b6000611fea8285611d6e565b9150611ff68284611d6e565b91508190509392505050565b60006020820190506120176000830184611cde565b92915050565b60006080820190506120326000830187611cde565b61203f6020830186611cde565b61204c6040830185611fcf565b818103606083015261205e8184611cfc565b905095945050505050565b600060208201905061207e6000830184611ced565b92915050565b6000602082019050818103600083015261209e8184611d35565b905092915050565b600060208201905081810360008301526120bf81611d9f565b9050919050565b600060208201905081810360008301526120df81611dc2565b9050919050565b600060208201905081810360008301526120ff81611de5565b9050919050565b6000602082019050818103600083015261211f81611e08565b9050919050565b6000602082019050818103600083015261213f81611e2b565b9050919050565b6000602082019050818103600083015261215f81611e4e565b9050919050565b6000602082019050818103600083015261217f81611e71565b9050919050565b6000602082019050818103600083015261219f81611e94565b9050919050565b600060208201905081810360008301526121bf81611eb7565b9050919050565b600060208201905081810360008301526121df81611eda565b9050919050565b600060208201905081810360008301526121ff81611efd565b9050919050565b6000602082019050818103600083015261221f81611f20565b9050919050565b6000602082019050818103600083015261223f81611f43565b9050919050565b6000602082019050818103600083015261225f81611f66565b9050919050565b6000602082019050818103600083015261227f81611f89565b9050919050565b6000602082019050818103600083015261229f81611fac565b9050919050565b60006020820190506122bb6000830184611fcf565b92915050565b60006122cb6122dc565b90506122d7828261252e565b919050565b6000604051905090565b600067ffffffffffffffff82111561230157612300612666565b5b61230a82612695565b9050602081019050919050565b600067ffffffffffffffff82111561233257612331612666565b5b61233b82612695565b9050602081019050919050565b600081519050919050565b600081519050919050565b600082825260208201905092915050565b600082825260208201905092915050565b600081905092915050565b6000612396826124b0565b91506123a1836124b0565b9250827fffffffffffffffffffffffffffffffffffffffffffffffffffffffffffffffff038211156123d6576123d56125d9565b5b828201905092915050565b60006123ec826124b0565b91506123f7836124b0565b92508261240757612406612608565b5b828204905092915050565b600061241d826124b0565b9150612428836124b0565b92508282101561243b5761243a6125d9565b5b828203905092915050565b600061245182612490565b9050919050565b60008115159050919050565b60007fffffffff0000000000000000000000000000000000000000000000000000000082169050919050565b600073ffffffffffffffffffffffffffffffffffffffff82169050919050565b6000819050919050565b82818337600083830152505050565b60005b838110156124e75780820151818401526020810190506124cc565b838111156124f6576000848401525b50505050565b6000600282049050600182168061251457607f821691505b6020821081141561252857612527612637565b5b50919050565b61253782612695565b810181811067ffffffffffffffff8211171561255657612555612666565b5b80604052505050565b600061256a826124b0565b91507fffffffffffffffffffffffffffffffffffffffffffffffffffffffffffffffff82141561259d5761259c6125d9565b5b600182019050919050565b60006125b3826124b0565b91506125be836124b0565b9250826125ce576125cd612608565b5b828206905092915050565b7f4e487b7100000000000000000000000000000000000000000000000000000000600052601160045260246000fd5b7f4e487b7100000000000000000000000000000000000000000000000000000000600052601260045260246000fd5b7f4e487b7100000000000000000000000000000000000000000000000000000000600052602260045260246000fd5b7f4e487b7100000000000000000000000000000000000000000000000000000000600052604160045260246000fd5b6000601f19601f8301169050919050565b7f4552433732313a207472616e7366657220746f206e6f6e20455243373231526560008201527f63656976657220696d706c656d656e7465720000000000000000000000000000602082015250565b7f4552433732313a20746f6b656e20616c7265616479206d696e74656400000000600082015250565b7f4552433732313a207472616e7366657220746f20746865207a65726f2061646460008201527f7265737300000000000000000000000000000000000000000000000000000000602082015250565b7f4552433732313a20617070726f766520746f2063616c6c657200000000000000600082015250565b7f4552433732313a206f70657261746f7220717565727920666f72206e6f6e657860008201527f697374656e7420746f6b656e0000000000000000000000000000000000000000602082015250565b7f4552433732313a20617070726f76652063616c6c6572206973206e6f74206f7760008201527f6e6572206e6f7220617070726f76656420666f7220616c6c0000000000000000602082015250565b7f4552433732313a2062616c616e636520717565727920666f7220746865207a6560008201527f726f206164647265737300000000000000000000000000000000000000000000602082015250565b7f4552433732313a206f776e657220717565727920666f72206e6f6e657869737460008201527f656e7420746f6b656e0000000000000000000000000000000000000000000000602082015250565b7f45524337323155524953746f726167653a2055524920736574206f66206e6f6e60008201527f6578697374656e7420746f6b656e000000000000000000000000000000000000602082015250565b7f4552433732313a206d696e7420746f20746865207a65726f2061646472657373600082015250565b7f45524337323155524953746f726167653a2055524920717565727920666f722060008201527f6e6f6e6578697374656e7420746f6b656e000000000000000000000000000000602082015250565b7f4552433732313a20617070726f76656420717565727920666f72206e6f6e657860008201527f697374656e7420746f6b656e0000000000000000000000000000000000000000602082015250565b7f4552433732313a207472616e73666572206f6620746f6b656e2074686174206960008201527f73206e6f74206f776e0000000000000000000000000000000000000000000000602082015250565b7f4552433732314d657461646174613a2055524920717565727920666f72206e6f60008201527f6e6578697374656e7420746f6b656e0000000000000000000000000000000000602082015250565b7f4552433732313a20617070726f76616c20746f2063757272656e74206f776e6560008201527f7200000000000000000000000000000000000000000000000000000000000000602082015250565b7f4552433732313a207472616e736665722063616c6c6572206973206e6f74206f60008201527f776e6572206e6f7220617070726f766564000000000000000000000000000000602082015250565b612b2d81612446565b8114612b3857600080fd5b50565b612b4481612458565b8114612b4f57600080fd5b50565b612b5b81612464565b8114612b6657600080fd5b50565b612b72816124b0565b8114612b7d57600080fd5b5056fea2646970667358221220d0176d2a55d397c4de64be61ac504a289bff274a92201f2218b9cb36dad047e964736f6c63430008040033",
  "linkReferences": {},
  "deployedLinkReferences": {}
}